{"abi":[{"type":"constructor","inputs":[],"stateMutability":"nonpayable"},{"type":"receive","stateMutability":"payable"},{"type":"function","name":"owner","inputs":[],"outputs":[{"name":"","type":"address","internalType":"address"}],"stateMutability":"view"},{"type":"function","name":"tip","inputs":[],"outputs":[],"stateMutability":"payable"}],"bytecode":{"object":"0x608060405234801561001057600080fd5b50600080546001600160a01b031916331790556101bf806100326000396000f3fe60806040526004361061002d5760003560e01c80632755cd2d146100425780638da5cb5b1461004a57600080fd5b3661003d5761003b34610086565b005b600080fd5b61003b6100ce565b34801561005657600080fd5b5060005461006a906001600160a01b031681565b6040516001600160a01b03909116815260200160405180910390f35b6100cb8160405160240161009c91815260200190565b60408051601f198184030181529190526020810180516001600160e01b031663f5b1bba960e01b179052610168565b50565b600080546040516001600160a01b039091169034908381818185875af1925050503d806000811461011b576040519150601f19603f3d011682016040523d82523d6000602084013e610120565b606091505b50509050806100cb5760405162461bcd60e51b815260206004820152601060248201526f2a3930b739b332b9103330b4b632b21760811b604482015260640160405180910390fd5b80516a636f6e736f6c652e6c6f67602083016000808483855afa505050505056fea264697066735822122074d2bfa4e4ff70152f8dea6bf2017059785ead45f9567bffb9e4499a53b5a0e264736f6c63430008170033","linkReferences":{}},"methodIdentifiers":{"owner()":"8da5cb5b","tip()":"2755cd2d"},"id":19}