{"abi":[{"type":"constructor","inputs":[{"name":"_b","type":"address","internalType":"address"}],"stateMutability":"payable"},{"type":"function","name":"payHalf","inputs":[],"outputs":[],"stateMutability":"nonpayable"}],"bytecode":{"object":"0x608060405260405161042c38038061042c83398101604081905261002291610267565b600080546001600160a01b0319166001600160a01b03831617905560408051808201909152601681527f61206465706c6f79656420617420616464726573733a00000000000000000000602082015261007b9030610164565b6100c06040518060400160405280602081526020017f61206465706c6f79656420776974682065746865722062616c616e6365206f66815250476101b160201b60201c565b60408051808201909152601681527f62206465706c6f79656420617420616464726573733a00000000000000000000602082015260005461010a91906001600160a01b0316610164565b6040805180820190915260208082527f62206465706c6f79656420776974682065746865722062616c616e6365206f669082015260005461015591906001600160a01b0316316101b1565b61015e346101fa565b50610329565b6101ad828260405160240161017a9291906102dd565b60408051601f198184030181529190526020810180516001600160e01b0390811663319af33360e01b1790915261024616565b5050565b6101ad82826040516024016101c7929190610307565b60408051601f198184030181529190526020810180516001600160e01b039081166309710a9d60e41b1790915261024616565b6102438160405160240161021091815260200190565b60408051601f198184030181529190526020810180516001600160e01b0390811663f5b1bba960e01b1790915261024616565b50565b80516a636f6e736f6c652e6c6f67602083016000808483855afa5050505050565b60006020828403121561027957600080fd5b81516001600160a01b038116811461029057600080fd5b9392505050565b6000815180845260005b818110156102bd576020818501810151868301820152016102a1565b506000602082860101526020601f19601f83011685010191505092915050565b6040815260006102f06040830185610297565b905060018060a01b03831660208301529392505050565b60408152600061031a6040830185610297565b90508260208301529392505050565b60f5806103376000396000f3fe6080604052348015600f57600080fd5b506004361060285760003560e01c80631d9ab27014602d575b600080fd5b60336035565b005b600080544791906001600160a01b0316604e600284609e565b604051600081818185875af1925050503d80600081146088576040519150601f19603f3d011682016040523d82523d6000602084013e608d565b606091505b5050905080609a57600080fd5b5050565b60008260ba57634e487b7160e01b600052601260045260246000fd5b50049056fea264697066735822122095adeefd2e7165f12776d7a63cc1be63723b1ea4c430359e6f8856307365157264736f6c63430008170033","linkReferences":{}},"methodIdentifiers":{"payHalf()":"1d9ab270"},"id":18}