{"abi":[{"type":"constructor","inputs":[{"name":"_b","type":"address","internalType":"address"}],"stateMutability":"payable"},{"type":"function","name":"payHalf","inputs":[],"outputs":[],"stateMutability":"nonpayable"}],"bytecode":{"object":"0x60806040526040516103f13803806103f18339810160408190526100229161022c565b600080546001600160a01b0319166001600160a01b03831617905560408051808201909152600d81526c104819195c1b1bde595908185d609a1b602082015261006b9030610129565b60408051808201909152601781527f41206465706c6f79656420776974682062616c616e636500000000000000000060208201526100a99047610176565b60408051808201909152600d81526c188819195c1b1bde595908185d609a1b60208201526000546100e391906001600160a01b0316610129565b604080518082019091526009815268622062616c616e636560b81b602082015260005461011a91906001600160a01b031631610176565b610123346101bf565b506102ee565b610172828260405160240161013f9291906102a2565b60408051601f198184030181529190526020810180516001600160e01b0390811663319af33360e01b1790915261020b16565b5050565b610172828260405160240161018c9291906102cc565b60408051601f198184030181529190526020810180516001600160e01b039081166309710a9d60e41b1790915261020b16565b610208816040516024016101d591815260200190565b60408051601f198184030181529190526020810180516001600160e01b0390811663f5b1bba960e01b1790915261020b16565b50565b80516a636f6e736f6c652e6c6f67602083016000808483855afa5050505050565b60006020828403121561023e57600080fd5b81516001600160a01b038116811461025557600080fd5b9392505050565b6000815180845260005b8181101561028257602081850181015186830182015201610266565b506000602082860101526020601f19601f83011685010191505092915050565b6040815260006102b5604083018561025c565b905060018060a01b03831660208301529392505050565b6040815260006102df604083018561025c565b90508260208301529392505050565b60f5806102fc6000396000f3fe6080604052348015600f57600080fd5b506004361060285760003560e01c80631d9ab27014602d575b600080fd5b60336035565b005b600080544791906001600160a01b0316604e600284609e565b604051600081818185875af1925050503d80600081146088576040519150601f19603f3d011682016040523d82523d6000602084013e608d565b606091505b5050905080609a57600080fd5b5050565b60008260ba57634e487b7160e01b600052601260045260246000fd5b50049056fea2646970667358221220a8fba52c4c9db70ced53d3c4f3e680c9b7891b9c2ddba18fa72989c79a08540a64736f6c63430008170033","linkReferences":{}},"methodIdentifiers":{"payHalf()":"1d9ab270"},"id":18}