{"abi":[{"type":"constructor","inputs":[],"stateMutability":"nonpayable"},{"type":"function","name":"owner","inputs":[],"outputs":[{"name":"","type":"address","internalType":"address"}],"stateMutability":"view"}],"bytecode":{"object":"0x608060405234801561001057600080fd5b50600080546001600160a01b0319163390811790915560408051808201909152601081526f6f776e6572206164647265737320697360801b602082015261005691610064565b61005f336100b1565b610181565b6100ad828260405160240161007a929190610121565b60408051601f198184030181529190526020810180516001600160e01b0390811663319af33360e01b1790915261010016565b5050565b6040516001600160a01b03821660248201526100fd9060440160408051601f198184030181529190526020810180516001600160e01b0390811663161765e160e11b1790915261010016565b50565b80516a636f6e736f6c652e6c6f67602083016000808483855afa5050505050565b604081526000835180604084015260005b8181101561014f5760208187018101516060868401015201610132565b50600060608285018101919091526001600160a01b03949094166020840152601f01601f191690910190910192915050565b60918061018f6000396000f3fe6080604052348015600f57600080fd5b506004361060285760003560e01c80638da5cb5b14602d575b600080fd5b600054603f906001600160a01b031681565b6040516001600160a01b03909116815260200160405180910390f3fea2646970667358221220628cd810c6e800c10d139b14206192083551a5ee7cd8090c81163bb93ce471a464736f6c63430008170033","linkReferences":{}},"methodIdentifiers":{"owner()":"8da5cb5b"},"id":18}