{"abi":[{"type":"constructor","inputs":[{"name":"_charity","type":"address","internalType":"address"}],"stateMutability":"nonpayable"},{"type":"receive","stateMutability":"payable"},{"type":"function","name":"charityAddress","inputs":[],"outputs":[{"name":"","type":"address","internalType":"address"}],"stateMutability":"view"},{"type":"function","name":"donate","inputs":[],"outputs":[],"stateMutability":"payable"},{"type":"function","name":"owner","inputs":[],"outputs":[{"name":"","type":"address","internalType":"address"}],"stateMutability":"view"},{"type":"function","name":"tip","inputs":[],"outputs":[],"stateMutability":"payable"}],"bytecode":{"object":"0x608060405234801561001057600080fd5b5060405161035438038061035483398101604081905261002f91610062565b60008054336001600160a01b031991821617909155600180549091166001600160a01b0392909216919091179055610092565b60006020828403121561007457600080fd5b81516001600160a01b038116811461008b57600080fd5b9392505050565b6102b3806100a16000396000f3fe6080604052600436106100435760003560e01c80632755cd2d146100585780638da5cb5b14610060578063afcf2fc41461009c578063ed88c68e146100bc57600080fd5b3661005357610051346100c4565b005b600080fd5b61005161010c565b34801561006c57600080fd5b50600054610080906001600160a01b031681565b6040516001600160a01b03909116815260200160405180910390f35b3480156100a857600080fd5b50600154610080906001600160a01b031681565b6100516101a7565b610109816040516024016100da91815260200190565b60408051601f198184030181529190526020810180516001600160e01b031663f5b1bba960e01b17905261025c565b50565b600080546040516001600160a01b039091169034908381818185875af1925050503d8060008114610159576040519150601f19603f3d011682016040523d82523d6000602084013e61015e565b606091505b50509050806101095760405162461bcd60e51b815260206004820152601060248201526f2a3930b739b332b9103330b4b632b21760811b60448201526064015b60405180910390fd5b60015460405147916000916001600160a01b039091169083908381818185875af1925050503d80600081146101f8576040519150601f19603f3d011682016040523d82523d6000602084013e6101fd565b606091505b505090508061024e5760405162461bcd60e51b815260206004820152601960248201527f446f6e6174696f6e207472616e73666572206661696c65642e00000000000000604482015260640161019e565b6001546001600160a01b0316ff5b80516a636f6e736f6c652e6c6f67602083016000808483855afa505050505056fea26469706673582212202c7357496e3d74801121d6822ca4e82ad68ce00dfac1c6333eba051bcfa1282b64736f6c63430008170033","linkReferences":{}},"methodIdentifiers":{"charityAddress()":"afcf2fc4","donate()":"ed88c68e","owner()":"8da5cb5b","tip()":"2755cd2d"},"id":19}